:020000040800F2
:100000007806002061020008410D0008390D000843
:100010003D0D000859040008090E0008000000000A
:10002000000000000000000000000000490D000872
:100030005D04000800000000450D00084D0D00089B
:100040007B0200087B0200087B0200087B0200089C
:100050007B0200087B0200087B0200087B0200088C
:100060007B0200087B0200087B0200087B0200087C
:100070007B0200087B0200087B0200087B0200086C
:100080007B0200087B0200087B02000800000000E1
:100090000000000000000000000000007B020008DB
:1000A0007B0200087B0200087B0200087B0200083C
:1000B0007B0200087B0200087B0200087B0200082C
:1000C0007B0200087B0200087B0200087B0200081C
:1000D0007B0200087B0200087B0200080000000091
:1000E0007B0200087B0200087B0200080000000081
:1000F0000000000000000000000000007B0200087B
:10010000000000007B0200087B0200087B02000860
:1001100000000000000000000000000000000000DF
:100120007B0200087B0200087B0200087B020008BB
:100130007B0200080000000000000000000000003A
:100140000000000000000000000000007B0200082A
:100150007B0200087B0200087B0200087B0200088B
:100160007B0200087B020008000000000000000085
:10017000000000000000000000000000000000007F
:10018000000000007B0200080000000000000000EA
:100190007B02000800F002F800F052F814A696E87E
:1001A000000CB244B344DA4501D100F049F8BAE892
:1001B0000F000FA696E83000A5EB040504EB060738
:1001C000AAEB0704A7F101074FEA15154FEA34140B
:1001D000A4F10104AC4201D300F032F813F0010F96
:1001E00018BFFB1A43F0010300F001F8DBE71847E2
:1001F0006813000088130000103A24BF78C878C143
:10020000FAD8520724BF30C830C144BF04680C601C
:1002100070470000704700000023002400250026DE
:10022000103A28BF78C1FBD8520728BF30C148BF59
:100230000B6070471FB501F07AF91FBD10B510BDF6
:1002400000F0D0F81146FFF7F5FF00F0DFFD00F0F9
:10025000EEF803B4FFF7F2FF03BC00F0F5F800007E
:100260000948804709480047FEE7FEE7FEE7FEE74A
:10027000FEE7FEE7FEE7FEE7FEE7FEE70448054986
:10028000054A064B70470000F50D0008950100086F
:1002900078000020780600207802002078020020F4
:1002A00053EA020C00F069802DE9F04B4FF0000694
:1002B000002B1FBFB3FA83F503FA05F424FA05F601
:1002C0005E4012BF1643B2FA82F502FA05F4C5F198
:1002D00020051EBF22FA05FC44EA0C04203556EA2C
:1002E000044C4FEA144418BF641C4FF000084FF050
:1002F0000009904271EB030C39D3002919BFB1FA00
:1003000081F701FA07F6B0FA80F700FA07F6C7F1AD
:1003100020071EBF20FA07FC46EA0C062037B6FB72
:10032000F4FCA7EB0507103F07F01F0BCBF12006ED
:100330002CFA06F60CFA0BFB44BFB3460026202F1E
:10034000A4BF5E464FF0000B5BEA060C08BF4FF0FF
:10035000010B19EB0B0948EB0608ABFB027C06FB13
:1003600002CC0BFB03CCC01B71EB0C01C1E70B46AD
:10037000024641464846BDE8F08B13B5084318BF16
:100380004FF0FF300146AFF30080BDE81C407047DE
:100390004FF0000200B5134694469646203922BF1E
:1003A000A0E80C50A0E80C50B1F12001BFF4F7AF69
:1003B000090728BFA0E80C5048BF0CC05DF804EB4B
:1003C000890028BF40F8042B08BF704748BF20F8B9
:1003D000022B11F0804F18BF00F8012B70477047B7
:1003E00070477047754600F02BF8AE460500694629
:1003F000534620F00700854618B020B5FFF73EFFB2
:10040000BDE820404FF000064FF000074FF0000815
:100410004FF0000BAC46ACE8C009ACE8C009ACE852
:10042000C009ACE8C00921F007018D46704710B53E
:100430000446AFF300802046BDE81040FFF709BF37
:10044000004870471000002001491820ABBEFEE7AD
:100450002600020070470000FEE700007047000021
:10046000B0B5044600F0E6F8054640F20000C2F2DE
:1004700000000078611C18BF044400BF00F0DAF8E7
:10048000401BA042FAD3B0BD2DE9F04F83B000F17C
:10049000200200F13E4741F20005009207F1FF778C
:1004A000C4F2020507224FEAB726A84208BF042279
:1004B00000254FF000084FF00009042E38BF4FEA26
:1004C000B72201920AE000BF09F1010908F1020810
:1004D000B9F1100F05F1040500F0A2800F680122A8
:1004E00002FA09FE17EA0E0AEED0D1F804C0032280
:1004F0000CF003077E1E02FA08F4012E6FEA040BCB
:1005000012D88468CE6804EA0B0406FA08F634436D
:100510008460446824EA0E06CCF3001404FA09F45B
:100520002643466004E000BF032F01D103271EE0ED
:10053000C6688C6806EA0B0604FA08F42643022F04
:10054000C66014D16FF00302009E02EA590756F804
:1005500007C005F01C040F220B69A2402CEA02021E
:10056000A3401A43F251D1F804C00CF0030702680B
:1005700007FA08F302EA0B021A431CF4403F026038
:10058000A2D0002243F644030292C4F202031A6886
:1005900043F6004442F480421A601A68C4F201042F
:1005A00002F480420292029A29F003024FF6084CAC
:1005B0002244CFF6FF7C52F80C3005F00C070F26D2
:1005C000BE40B343019E06FA07F73B4342F80C30A6
:1005D000A2684B6842EA0A0743F60C4CDE0258BF99
:1005E00022EA0A07A760C4F2010CDCF800209E0290
:1005F00042EA0A0758BF22EA0A07CCF8007062688C
:100600009E0342EA0A0758BF22EA0A076760226887
:10061000DB0342EA0A0758BF22EA0A07276053E7CA
:1006200003B0BDE8F08F0000002A08BF0904816113
:100630007047000040F27000C2F20000006870478E
:1006400040F2000040F27001C2F20000C2F200016C
:1006500000780A68104408607047000080B543F6CF
:100660000040C4F20200016841F4007101600168B9
:1006700041F480610160016841F4807101600320F0
:1006800000F076F8002000F005F800F027F80020D0
:1006900080BD000070B540F20006C2F2000640F2D4
:1006A00008013278C2F200014FF47A730968B3FB93
:1006B000F2F20446B1FBF2F1084600F027FB0F2CE2
:1006C0004FF0010508D838B94FF0FF30214600221D
:1006D000002500F021F87460284670BD82B000202B
:1006E00043F640010190C4F202014A6842F480429C
:1006F0004A604A6802F480420192019A00900868B8
:1007000040F080500860086800F080500090009829
:10071000072002B000F02CB810B54EF60C5CCEF2FB
:10072000000CDCF80030C3F3022E8EF00704042C1A
:1007300028BF0424BEF103034FF0FF3E0EFA04F479
:1007400038BF0023A14399400EFA03F39A431143A3
:1007500000F00F0200F160430901043A03F564431D
:100760006244002848BF02F10C03197010BD00005C
:100770004EF60C51CEF200010A684FF6FF031A4004
:1007800060F30A2242F0806040F0FD70086070471C
:10079000002804BF012070472DE9F04143F6080806
:1007A000C4F202080446D8F8F8030D4600F007002A
:1007B000884207D288F8F853D8F8F80300F0070009
:1007C000A84277D12068810717D5410705D5D8F809
:1007D000001041F4E051C8F80010010705D5D8F821
:1007E000001041F46041C8F80010D8F80010A26869
:1007F00021F0F0011143C8F80010C00740D1D8F82B
:10080000F80300F00700A84207D988F8F853D8F891
:10081000F80300F00700A8424CD12068410707D533
:10082000D8F80010E26821F4E0511143C8F8001034
:10083000000708D5D8F80000216920F4604040EA9C
:10084000C100C8F8000000F055F8D8F8001041F2D7
:100850004852C1F30311C0F60002515C40F2080295
:1008600020FA01F140F20400C2F200000068C2F276
:1008700000021160FFF70EFF0020BDE8F08100BF0D
:100880006068811E022907D258F8081C89015CBFE4
:100890000120BDE8F08111E0012807D158F8081CBB
:1008A00089035CBF0120BDE8F08107E058F8081C0F
:1008B000890703D40120BDE8F08100BFD8F80010FB
:1008C00021F003010843C8F80000FFF7B3FE064615
:1008D00041F28837D8F80000616800F00C00B0EBF6
:1008E000810F8CD0FFF7A6FE801BB842F2D90320FF
:1008F000BDE8F08110B543F60404C4F20204606858
:1009000000F00C0142F200400829C0F2F40007D0C8
:10091000042918BF10BD41F20020C0F27A0010BDBA
:10092000216801F03F02216823684902C3F388115E
:1009300006D4A1FB00010023FFF7B2FC07E000BFD3
:1009400041F20020C0F27A004843B0FBF2F0216887
:100950000222C1F3014102EB4101B0FBF1F010BDF5
:10096000002804BF012070472DE9F04182B0044601
:10097000007843F60006C007C4F202060CD0B06847
:1009800000F00C00042840F081803068800303D51B
:100990006068002800F06881207880071BD5B06867
:1009A00010F00C0F09D0B06800F00C00082840F0DF
:1009B00087807068400200F183803068800703D52B
:1009C000E068012840F050813068216920F0F8008B
:1009D00040EAC10030602078000713D42078400737
:1009E0002AD4A569002D00F03A81B06800F00C000F
:1009F000082840F0A580012D40F00E81012002B0B2
:100A0000BDE8F0816069002800F082800020C4F217
:100A100047200121C0F8801EFFF70CFE054600BFED
:100A2000706F8007DAD4FFF705FE401B0228F7D964
:100A3000032002B0BDE8F081306C5FEAC0080AD440
:100A400000200190306C40F080503064306C00F039
:100A500080500190019847F20007C4F200073868FF
:100A6000C00547D4386840F480703860FFF7E2FD75
:100A7000054600BF3868C0053CD4FFF7DBFD401BCE
:100A80000228F7D9032002B0BDE8F081B06800F079
:100A90000C00082803D1706840023FF576AF61680A
:100AA0003068B1F5803F07D0B1F5A02F40F09A80B3
:100AB00040F480203060306840F4803030609AE04C
:100AC000E068002840F20000C4F247205CD0012119
:100AD0000160FFF7AFFD0546306880073FF574AF52
:100AE000FFF7A8FD401B0228F6D9032002B0BDE89D
:100AF000F08100BFA168306F012905D0052955D1CB
:100B000040F004003067306F40F00100306756E07D
:100B10000020C4F247200021C0F8801EFFF78AFDA4
:100B2000054600BF706F80077FF558AFFFF782FD65
:100B3000401B0228F6D9032002B0BDE8F08100BFB7
:100B40000027C4F2472700203866FFF773FD022D07
:100B500005460DD13068800140F18A80FFF76AFDBB
:100B6000401B02284FF00300F4D902B0BDE8F08129
:100B70003068800173D5FFF75DFD401B02284FF000
:100B80000300F5D9F1E700BF00210160FFF752FD36
:100B9000054600BF306880077FF51DAFFFF74AFDAF
:100BA000401B02284FF00300F4D9DEE720F00100DB
:100BB0003067306F002920F0040030677AD0FFF7EB
:100BC00039FD054641F28837306F800700F1848097
:100BD000FFF730FD401BB842F6D9032002B0BDE854
:100BE000F08100BF20F4803030603068002920F4AC
:100BF000802030607AD0FFF71DFD05463068800305
:100C00003FF5CAAEFFF716FD401B6428F6D9032056
:100C100002B0BDE8F08100BF7068E16900F48002B5
:100C20008A4221D1216A00F03F028A421CD147F654
:100C3000C071626A0140B1EB821F15D1A16A4FF603
:100C4000FF73C903994300F44032A1F580318A4211
:100C50000AD1E16A00F07060B0EB016F04D10020AE
:100C600002B0BDE8F08100BF012002B0BDE8F08114
:100C700004F11C052FCD084340EA8210D9034FF63A
:100C8000FF729143A1F5803140EA0560084370602E
:100C900001203866FFF7CEFC044600BF30688001B3
:100CA000DDD4FFF7C7FC001B02284FF00300F5D985
:100CB0005BE700BFFFF7BEFC054641F2883700BF87
:100CC000306F800708D5FFF7B5FC401BB8424FF0E6
:100CD0000300F5D949E700BFB8F1000F3FF581AE39
:100CE000306C20F0805030647BE600BFFFF7A2FC40
:100CF000054600BF306880037FF54EAEFFF79AFCD3
:100D0000401B64284FF00300F4D92EE7411E002059
:100D1000B0EB116F1CBF012070474EF21002CEF2F3
:100D2000000251604EF62351CEF20001F0230B7009
:100D30000721906011607047FEE70000FEE70000A9
:100D4000FEE700007047000070470000FFF778BC26
:100D500070B592B006AC20463021FFF719FB002594
:100D600043F640000595CDE90355CDE901550095C1
:100D7000C4F202000168022641F08051016000685F
:100D800000F080500090009847F200000095C4F2F7
:100D90000000016866F38F310160006800F4404094
:100DA000009000980120099010200A900E904FF4B6
:100DB000A8700F90042010900720119020460696EE
:100DC000CDE90C65FFF7CCFD10B172B6FEE700BFB0
:100DD0000F20CDE901064FF48050CDE9040501A8AC
:100DE00002210395FFF7D4FC10B172B6FEE700BFF5
:100DF00012B070BD4EF68850CEF20000016841F48A
:100E00007001016070470000FEE7000086B000241A
:100E1000C4F20204FFF722FCFFF79AFF002743F613
:100E200030000597CDE90377CDE901770097C4F24B
:100E30000200016804F5006541F0040101600168E9
:100E4000002201F0040100910099009701684FF61B
:100E5000FF7941F080010160016801F0800100919B
:100E600000990097016841F001010160016801F0FB
:100E70000101009100990097016841F002010160B1
:100E800000684FF6FF7100F00200009000982846BD
:100E9000FFF7CAFB20464FF6FF710022FFF7C4FBA5
:100EA00004F5806630464FF2FF7100224FF2FF7A60
:100EB000FFF7BAFB0DF104084FF0010B284641463D
:100EC000CDF80490CDE902B70497FFF7DDFA20468C
:100ED0004146CDE9019BCDE90377FFF7D5FA3046CE
:100EE0004146CDE901ABCDE90377FFF7CDFA00BF6D
:100EF000204601210122FFF797FB6420FFF7B0FA9B
:100F0000204601210022FFF78FFB6420FFF7A8FA9B
:100F1000204602210122FFF787FB6420FFF7A0FA99
:100F2000204602210022FFF77FFB6420FFF798FA9A
:100F3000204604210122FFF777FB6420FFF790FA97
:100F4000204604210022FFF76FFB6420FFF788FA98
:100F5000204608210122FFF767FB6420FFF780FA93
:100F6000204608210022FFF75FFB6420FFF778FA94
:100F7000204610210122FFF757FB6420FFF770FA8B
:100F8000204610210022FFF74FFB6420FFF768FA8C
:100F9000204620210122FFF747FB6420FFF760FA7B
:100FA000204620210022FFF73FFB6420FFF758FA7C
:100FB000204640210122FFF737FB6420FFF750FA5B
:100FC000204640210022FFF72FFB6420FFF748FA5C
:100FD000204680210122FFF727FB6420FFF740FA1B
:100FE000204680210022FFF71FFB6420FFF738FA1C
:100FF00020464FF480710122FFF716FB6420FFF7B3
:101000002FFA20464FF480710022FFF70DFB642079
:10101000FFF726FA20464FF400710122FFF704FB88
:101020006420FFF71DFA20464FF400710022FFF7FD
:10103000FBFA6420FFF714FA20464FF48061012286
:10104000FFF7F2FA6420FFF70BFA20464FF48061B5
:101050000022FFF7E9FA6420FFF702FA20464FF476
:1010600000610122FFF7E0FA6420FFF7F9F920465A
:101070004FF400610022FFF7D7FA6420FFF7F0F980
:1010800020464FF480510122FFF7CEFA6420FFF78B
:10109000E7F920464FF480510022FFF7C5FA64209B
:1010A000FFF7DEF920464FF400510122FFF7BCFAAA
:1010B0006420FFF7D5F920464FF400510022FFF7D6
:1010C000B3FA6420FFF7CCF920464FF480410122A7
:1010D000FFF7AAFA6420FFF7C3F920464FF48041D6
:1010E0000022FFF7A1FA6420FFF7BAF920464FF477
:1010F00000410122FFF798FA6420FFF7B1F920467A
:101100004FF400410022FFF78FFA6420FFF7A8F99F
:10111000304601210122FFF787FA6420FFF7A0F98A
:10112000304601210022FFF77FFA6420FFF798F98B
:10113000304602210122FFF777FA6420FFF790F989
:10114000304602210022FFF76FFA6420FFF788F98A
:10115000304604210122FFF767FA6420FFF780F987
:10116000304604210022FFF75FFA6420FFF778F988
:10117000304608210122FFF757FA6420FFF770F983
:10118000304608210022FFF74FFA6420FFF768F984
:10119000304610210122FFF747FA6420FFF760F97B
:1011A000304610210022FFF73FFA6420FFF758F97C
:1011B000304620210122FFF737FA6420FFF750F96B
:1011C000304620210022FFF72FFA6420FFF748F96C
:1011D000304640210122FFF727FA6420FFF740F94B
:1011E000304640210022FFF71FFA6420FFF738F94C
:1011F000304680210122FFF717FA6420FFF730F90B
:10120000304680210022FFF70FFA6420FFF728F90B
:1012100030464FF480710122FFF706FA6420FFF791
:101220001FF930464FF480710022FFF7FDF964206A
:10123000FFF716F930464FF400710122FFF7F4F979
:101240006420FFF70DF930464FF400710022FFF7DC
:10125000EBF96420FFF704F930464FF48061012276
:10126000FFF7E2F96420FFF7FBF830464FF48061A6
:101270000022FFF7D9F96420FFF7F2F830464FF467
:1012800080510122FFF7D0F96420FFF7E9F83046DA
:101290004FF480510022FFF7C7F96420FFF7E0F810
:1012A00030464FF400510122FFF7BEF96420FFF7EA
:1012B000D7F830464FF400510022FFF7B5F964200B
:1012C000FFF7CEF830464FF480410122FFF7ACF92A
:1012D0006420FFF7C5F830464FF480410022FFF745
:1012E000A3F96420FFF7BCF830464FF40041012217
:1012F000FFF79AF96420FFF7B3F830464FF4004146
:101300000022FFF791F96420FFF7AAF8284601218F
:101310000122FFF789F96420FFF7A2F8284601218E
:101320000022FFF781F96420FFF79AF8284602218E
:101330000122FFF779F96420FFF792F8284602218D
:101340000022FFF771F96420FFF78AF8284604218C
:101350000122FFF769F96420FFF782F8284604218B
:101360000022FFF761F96420FFF77AF82846082188
:101370000122FFF759F96420FFF772F82846082187
:101380000022FFF751F96420FFF76AF82846102180
:101390000122FFF749F96420FFF762F8284610217F
:1013A0000022FFF741F96420FFF75AF82846202170
:1013B0000122FFF739F96420FFF752F8284620216F
:1013C0000022FFF731F96420FFF74AF82846402150
:1013D0000122FFF729F96420FFF742F8284640214F
:1013E0000022FFF721F96420FFF73AF82846802110
:1013F0000122FFF719F96420FFF732F8284680210F
:101400000022FFF711F96420FFF72AF828464FF46D
:1014100080710122FFF708F96420FFF721F82846C0
:101420004FF480710022FFF7FFF86420FFF718F8EF
:1014300028464FF400710122FFF7F6F86420FFF709
:101440000FF828464FF400710022FFF7EDF86420F2
:10145000FFF706F828464FF480610122FFF7E4F811
:101460006420FEF7FDFF28464FF480610022FFF75D
:10147000DBF86420FEF7F4FF28464FF400610122F8
:10148000FFF7D2F86420FEF7EBFF28464FF4006127
:101490000022FFF7C9F86420FEF7E2FF28464FF468
:1014A00080510122FFF7C0F86420FEF7D9FF2846DB
:1014B0004FF480510022FFF7B7F86420FEF7D0FF09
:1014C00028464FF400510122FFF7AEF86420FEF7E2
:1014D000C7FF28464FF400510022FFF7A5F864200B
:1014E000FEF7BEFF28464FF480410122FFF79CF82B
:1014F0006420FEF7B5FF28464FF480410022FFF735
:1015000093F86420FEF7ACFF28464FF40041012217
:10151000FFF78AF86420FEF7A3FF28464FF4004146
:101520000022FFF781F86420FEF79AFFE0E4F1EE75
:10153000100A4FF6FF71C0F2C03120EA010040F0FE
:101540004070E1EE100A704700000000000000004B
:1015500001020304060708097815000800000020AE
:1015600010000000F8010008881500081000002095
:1015700068060000180200080100000010000000CA
:081580000024F400000000004B
:040000050800019559
:00000001FF
